:100000000C948C000C9451020C94A9000C94A9003F
:100010000C94A9000C94A9000C94A9000C94A900BC
:100020000C94A9000C94A9000C94A9000C94A900AC
:100030000C94A9000C94A9000C94A9000C94A9009C
:100040000C94A9000C94A9000C94A9000C94A9008C
:100050000C94A9000C94A9000C94A9000C94A9007C
:100060000C94A9000C94A90005010906A1017501D1
:100070009508050719E029E715002501810295017A
:100080007508810395057501050819012905910277
:1000900095017503910395067508150025650507FB
:1000A000190029658100C009022200010100803287
:1000B00009040000010300000009210101000122E0
:1000C00023000705810308000A1201100100000047
:1000D00008424231E100010102000118035500739A
:1000E0000062004B006500790062006F00610072E1
:1000F0000064002003720061006E00630069006408
:10010000006200610063006F006E002E0063006FEC
:10011000006D00040309040011241FBECFEFD8E0D6
:10012000DEBFCDBF11E0A0E0B1E0EEE8F7E002C035
:1001300005900D92A230B107D9F721E0A2E0B1E01D
:1001400001C01D92AD33B207E1F70E9472030C9417
:10015000C5030C9400001BB88AB18B6E8AB9F89461
:1001600055985D98559A5D9A0E942B027894E3E029
:10017000F1E084E0DF011D928A95E9F764E0CF01A8
:100180000E94FA0055985D98BFEF24E38CE0B150CF
:1001900020408040E1F700C00000559A5D9A089524
:1001A0000C9420019091120194FFFCCF1092060153
:1001B00010920501609303018093040164E083E0E1
:1001C00091E00E94FA008091120184FFFCCFE3E0ED
:1001D000F1E084E0DF011D928A95E9F764E0CF0148
:1001E0000C94FA0083E091E0909322018093210126
:1001F00080E00895CF93C62F2091120124FF1CC0E8
:100200002091130138E8232720931301E4E1F1E062
:100210009C01D9012F5F3F4F9C9191939C2F921B82
:10022000980FB9F76C2F84E191E00E944D02CC5FEA
:10023000C0931201CF9108952AE520931201E6CFD1
:10024000CF93DF9380912301835087FD28C0909145
:100250001F019D3211F5883001F580912001CCE01D
:10026000D0E0C81BD109C95DDE4F83EC8093070144
:100270008AE580930101109202018881807609F459
:1002800062C0CE010E94F2009F81911104C09E8144
:10029000981708F4892F8093000110922301809110
:1002A000010184FF43C0809100018F3F09F43EC0EB
:1002B000C82F893008F0C8E0982F9C1B909300014C
:1002C0009091070128E8922790930701882301F174
:1002D0008091210190912201209102014C2F480F21
:1002E00026FFAEC0FC0128E031E05491D9015C93B7
:1002F0002F5F3F4F31964E13F8CF2FEF2C0F30E08A
:100300002F5F3F4F820F931F909322018093210113
:100310006C2F88E091E00E944D0284E08C0FC83081
:1003200019F09FEF909300018093010184E199B14E
:10033000947131F48150D9F71092240110921E016A
:10034000DF91CF9108952A81109210019981911126
:100350000AC01092110120E131E082E030932201C5
:100360002093210191CF953029F42093240120E19D
:1003700031E0F4CF963009F04CC09B81913059F4B4
:1003800089EC90E0909322018093210182E190E436
:100390009093020179CF923041F487EA90E09093F4
:1003A00022018093210182E2F2CF9330F1F42111F6
:1003B00008C083E191E0909322018093210184E0C1
:1003C000E6CF213041F483EF90E0909322018093B7
:1003D000210180E2DCCF2230D1F68BED90E09093CA
:1003E00022018093210188E1D2CF913241F489EB3F
:1003F00090E0909322018093210189E0C8CF92324E
:1004000031F688E690E0909322018093210183E207
:10041000BECF983071F0993019F420932601A7CF00
:100420009A3059F09B3009F0A2CF9BE490931301CE
:100430009ECF26E231E081E091CF20E131E0FBCF99
:10044000E8E0F1E09C01D9012F5F3F4F5C915193AF
:100450004213F9CF52CFE9E6F0E0808182608083D9
:10046000E89AE2E1F1E08BE481838AE580830895F4
:10047000A82FB92F80E090E041E050EA609530E08D
:1004800009C02D9182279795879510F0842795278D
:10049000305EC8F36F5FA8F30895EADF8D939D93F4
:1004A0000895CF93CFB7CF93DF93C3954C9BE9F7D4
:1004B0004C9B0BC04C9B09C04C9B07C04C9B05C080
:1004C0004C9B03C04C9B01C08BC06F93C09120011B
:1004D000DD27C95DDE4F2F9365E54C9B03C02F914F
:1004E0006F91E6CF0F931F934F9320E040E15F930E
:1004F00009B1047104FB27F93F9350E03BE039C098
:10050000147140642F77012F5F5F1EC0406819B1DE
:1005100014712F7752501FC0406409B12F770471B6
:10052000D1F15F5F00C023C0406219B12F77147111
:1005300091F15F5F00C025C004711027515012F483
:100540005D5F0000115027952C3F19B1C8F614715A
:100550000127015027952C3FC8F64227499309B13E
:10056000047110274F73115027952C3FA8F646951C
:10057000469519B1147179F00127015027952C3F48
:1005800098F66B5A60F3315009B1B0F600C011E033
:100590001CBB002719C03B503195C31BD04011E054
:1005A0001CBB0881033C09F10B34F9F020911E01BA
:1005B0001981110F1213EDCF4A81441F093651F1F1
:1005C0000D3211F0013E29F7009325013F915F9113
:1005D0004F911F910F912F916F91CCB3C0FD65CFBB
:1005E000DF91CF91CFBFCF91189520912501222384
:1005F00069F310912301112391F5343092F1309376
:10060000230120931F01109120013BE0311B309307
:10061000200127C00091230101300CF50AE54F703D
:1006200049F43091010134FD1DC000930101C7E080
:10063000D1E01CC03091120134FD14C000931201AE
:10064000C3E1D1E013C0052710E000C000000BB9E2
:100650001AC0052710E0221F1DC010E021C04AE586
:1006600002C032ED432FC4E1D0E032E01AB1146190
:100670005C9A0BB11AB954E120E865E320FF052725
:100680000BB9279517951C3FF0F66695B8F7B1F7AB
:1006900020FF05270BB9279517951C3FD0F6279506
:1006A000179517FF052700001C3F0BB9B0F62991DD
:1006B0003A9519F70B7E10912401110FC651D040C5
:1006C0000BB911F010931E0111E01CBB00611AB1AF
:1006D0001B7E402F4B7E54E05A95F1F70BB91AB9A7
:1006E0004BB974CF0E94AB005F9A259AC0E00E947C
:1006F000D0004F993EC0C1113CC062E08BE00E9427
:10070000D20060E088E00E94D20060E08FE00E94AA
:10071000D20060E08FE00E94D20060E082E10E949F
:10072000D20060E08CE20E94D20062E08AE10E9486
:10073000D20060E082E10E94D20060E085E10E9488
:10074000D20060E08FE00E94D20060E087E00E946B
:10075000D20062E08EE10E94D20060E088E20E9456
:10076000D2008FE39CE90197F1F700C00000C1E0DF
:10077000BECF4F9BBCCFC13009F0B9CF8FE39CE90E
:0E0780000197F1F700C00000B1CFF894FFCF51
:02078E00FF5A10
:00000001FF
